{"abi":[{"type":"constructor","inputs":[{"name":"initialSupply","type":"uint256","internalType":"uint256"}],"stateMutability":"nonpayable"},{"type":"function","name":"balanceOf","inputs":[{"name":"account","type":"address","internalType":"address"}],"outputs":[{"name":"","type":"uint256","internalType":"uint256"}],"stateMutability":"view"},{"type":"function","name":"balances","inputs":[{"name":"","type":"address","internalType":"address"}],"outputs":[{"name":"","type":"uint256","internalType":"uint256"}],"stateMutability":"view"},{"type":"function","name":"totalSupply","inputs":[],"outputs":[{"name":"","type":"uint256","internalType":"uint256"}],"stateMutability":"view"},{"type":"function","name":"transfer","inputs":[{"name":"to","type":"address","internalType":"address"},{"name":"value","type":"uint256","internalType":"uint256"}],"outputs":[{"name":"","type":"bool","internalType":"bool"}],"stateMutability":"nonpayable"},{"type":"event","name":"Initial","inputs":[{"name":"","type":"address","indexed":false,"internalType":"address"},{"name":"amount","type":"uint256","indexed":false,"internalType":"uint256"}],"anonymous":false},{"type":"event","name":"Transfer","inputs":[{"name":"from","type":"address","indexed":true,"internalType":"address"},{"name":"to","type":"address","indexed":true,"internalType":"address"},{"name":"amount","type":"uint256","indexed":false,"internalType":"uint256"}],"anonymous":false},{"type":"event","name":"Types","inputs":[{"name":"from","type":"address","indexed":true,"internalType":"address"},{"name":"to","type":"address","indexed":false,"internalType":"address"},{"name":"val0","type":"uint256","indexed":false,"internalType":"uint256"},{"name":"val1","type":"uint64","indexed":false,"internalType":"uint64"},{"name":"val2","type":"int64","indexed":false,"internalType":"int64"},{"name":"val3","type":"uint32","indexed":false,"internalType":"uint32"},{"name":"val4","type":"int32","indexed":false,"internalType":"int32"},{"name":"val5","type":"uint16","indexed":false,"internalType":"uint16"},{"name":"val6","type":"int16","indexed":false,"internalType":"int16"},{"name":"val7","type":"uint8","indexed":false,"internalType":"uint8"},{"name":"val8","type":"int8","indexed":false,"internalType":"int8"},{"name":"val9","type":"bool","indexed":false,"internalType":"bool"}],"anonymous":false}],"bytecode":{"object":"0x608060405234801561000f575f80fd5b50604051610aab380380610aab8339818101604052810190610031919061022b565b80600181905550805f803373ffffffffffffffffffffffffffffffffffffffff1673ffffffffffffffffffffffffffffffffffffffff1681526020019081526020015f20819055507f6a4da1829040b64159d6e13bc6bb2f42edf680a28387dc45b23b581e2942a2fe33826040516100aa9291906102a4565b60405180910390a15f7709c654280ff91357ae2cb2974b435055bc5a175c69cd986990505f67400000000000000090505f7ffffffffffffffffffffffffffffffffffffffffffffffffff00000000000000090505f633fffc2bb90505f7fffffffffffffffffffffffffffffffffffffffffffffffffffffffffc017eebd90505f613f8590505f7fffffffffffffffffffffffffffffffffffffffffffffffffffffffffffffc08790505f608790505f7fffffffffffffffffffffffffffffffffffffffffffffffffffffffffffffff8890505f600190503373ffffffffffffffffffffffffffffffffffffffff167f41567875ebd893ca4cdc8713e3b39234e8b097ba49316ece717044cb66137977338c8c8c8c8c8c8c8c8c8c6040516101dc9b9a999897969594939291906103c7565b60405180910390a25050505050505050505050610470565b5f80fd5b5f819050919050565b61020a816101f8565b8114610214575f80fd5b50565b5f8151905061022581610201565b92915050565b5f602082840312156102405761023f6101f4565b5b5f61024d84828501610217565b91505092915050565b5f73ffffffffffffffffffffffffffffffffffffffff82169050919050565b5f61027f82610256565b9050919050565b61028f81610275565b82525050565b61029e816101f8565b82525050565b5f6040820190506102b75f830185610286565b6102c46020830184610295565b9392505050565b5f67ffffffffffffffff82169050919050565b6102e7816102cb565b82525050565b5f8160070b9050919050565b610302816102ed565b82525050565b5f63ffffffff82169050919050565b61032081610308565b82525050565b5f8160030b9050919050565b61033b81610326565b82525050565b5f61ffff82169050919050565b61035781610341565b82525050565b5f8160010b9050919050565b6103728161035d565b82525050565b5f60ff82169050919050565b61038d81610378565b82525050565b5f815f0b9050919050565b6103a781610393565b82525050565b5f8115159050919050565b6103c1816103ad565b82525050565b5f610160820190506103db5f83018e610286565b6103e8602083018d610295565b6103f5604083018c6102de565b610402606083018b6102f9565b61040f608083018a610317565b61041c60a0830189610332565b61042960c083018861034e565b61043660e0830187610369565b610444610100830186610384565b61045261012083018561039e565b6104606101408301846103b8565b9c9b505050505050505050505050565b61062e8061047d5f395ff3fe608060405234801561000f575f80fd5b506004361061004a575f3560e01c806318160ddd1461004e57806327e235e31461006c57806370a082311461009c578063a9059cbb146100cc575b5f80fd5b6100566100fc565b6040516100639190610348565b60405180910390f35b610086600480360381019061008191906103bf565b610102565b6040516100939190610348565b60405180910390f35b6100b660048036038101906100b191906103bf565b610116565b6040516100c39190610348565b60405180910390f35b6100e660048036038101906100e19190610414565b61015b565b6040516100f3919061046c565b60405180910390f35b60015481565b5f602052805f5260405f205f915090505481565b5f805f8373ffffffffffffffffffffffffffffffffffffffff1673ffffffffffffffffffffffffffffffffffffffff1681526020019081526020015f20549050919050565b5f80821161019e576040517f08c379a0000000000000000000000000000000000000000000000000000000008152600401610195906104df565b60405180910390fd5b815f803373ffffffffffffffffffffffffffffffffffffffff1673ffffffffffffffffffffffffffffffffffffffff1681526020019081526020015f2054101561021d576040517f08c379a000000000000000000000000000000000000000000000000000000000815260040161021490610547565b60405180910390fd5b815f803373ffffffffffffffffffffffffffffffffffffffff1673ffffffffffffffffffffffffffffffffffffffff1681526020019081526020015f205f8282546102689190610592565b92505081905550815f808573ffffffffffffffffffffffffffffffffffffffff1673ffffffffffffffffffffffffffffffffffffffff1681526020019081526020015f205f8282546102ba91906105c5565b925050819055508273ffffffffffffffffffffffffffffffffffffffff163373ffffffffffffffffffffffffffffffffffffffff167fddf252ad1be2c89b69c2b068fc378daa952ba7f163c4a11628f55a4df523b3ef8460405161031e9190610348565b60405180910390a36001905092915050565b5f819050919050565b61034281610330565b82525050565b5f60208201905061035b5f830184610339565b92915050565b5f80fd5b5f73ffffffffffffffffffffffffffffffffffffffff82169050919050565b5f61038e82610365565b9050919050565b61039e81610384565b81146103a8575f80fd5b50565b5f813590506103b981610395565b92915050565b5f602082840312156103d4576103d3610361565b5b5f6103e1848285016103ab565b91505092915050565b6103f381610330565b81146103fd575f80fd5b50565b5f8135905061040e816103ea565b92915050565b5f806040838503121561042a57610429610361565b5b5f610437858286016103ab565b925050602061044885828601610400565b9150509250929050565b5f8115159050919050565b61046681610452565b82525050565b5f60208201905061047f5f83018461045d565b92915050565b5f82825260208201905092915050565b7f56616c7565206d7573742062652067726561746572207468616e2030000000005f82015250565b5f6104c9601c83610485565b91506104d482610495565b602082019050919050565b5f6020820190508181035f8301526104f6816104bd565b9050919050565b7f496e73756666696369656e742062616c616e63650000000000000000000000005f82015250565b5f610531601483610485565b915061053c826104fd565b602082019050919050565b5f6020820190508181035f83015261055e81610525565b9050919050565b7f4e487b71000000000000000000000000000000000000000000000000000000005f52601160045260245ffd5b5f61059c82610330565b91506105a783610330565b92508282039050818111156105bf576105be610565565b5b92915050565b5f6105cf82610330565b91506105da83610330565b92508282019050808211156105f2576105f1610565565b5b9291505056fea2646970667358221220f7ef5c9f7fcfeb8b959151eb49c2ddece3bc8ed13e410d179c63c19d0ee0a65964736f6c63430008190033","linkReferences":{}},"methodIdentifiers":{"balanceOf(address)":"70a08231","balances(address)":"27e235e3","totalSupply()":"18160ddd","transfer(address,uint256)":"a9059cbb"},"id":0}