{"abi":[{"type":"constructor","inputs":[{"name":"initialSupply","type":"uint256","internalType":"uint256"}],"stateMutability":"nonpayable"},{"type":"function","name":"balanceOf","inputs":[{"name":"account","type":"address","internalType":"address"}],"outputs":[{"name":"","type":"uint256","internalType":"uint256"}],"stateMutability":"view"},{"type":"function","name":"balances","inputs":[{"name":"","type":"address","internalType":"address"}],"outputs":[{"name":"","type":"uint256","internalType":"uint256"}],"stateMutability":"view"},{"type":"function","name":"totalSupply","inputs":[],"outputs":[{"name":"","type":"uint256","internalType":"uint256"}],"stateMutability":"view"},{"type":"function","name":"transfer","inputs":[{"name":"to","type":"address","internalType":"address"},{"name":"value","type":"uint256","internalType":"uint256"}],"outputs":[{"name":"","type":"bool","internalType":"bool"}],"stateMutability":"nonpayable"},{"type":"event","name":"Transfer","inputs":[{"name":"from","type":"address","indexed":true,"internalType":"address"},{"name":"to","type":"address","indexed":true,"internalType":"address"},{"name":"value","type":"uint256","indexed":false,"internalType":"uint256"}],"anonymous":false}],"bytecode":{"object":"0x6080604052348015600e575f80fd5b5060405161070e38038061070e8339818101604052810190602e919060ad565b80600181905550805f803373ffffffffffffffffffffffffffffffffffffffff1673ffffffffffffffffffffffffffffffffffffffff1681526020019081526020015f20819055505060d3565b5f80fd5b5f819050919050565b608f81607f565b81146098575f80fd5b50565b5f8151905060a7816088565b92915050565b5f6020828403121560bf5760be607b565b5b5f60ca84828501609b565b91505092915050565b61062e806100e05f395ff3fe608060405234801561000f575f80fd5b506004361061004a575f3560e01c806318160ddd1461004e57806327e235e31461006c57806370a082311461009c578063a9059cbb146100cc575b5f80fd5b6100566100fc565b6040516100639190610348565b60405180910390f35b610086600480360381019061008191906103bf565b610102565b6040516100939190610348565b60405180910390f35b6100b660048036038101906100b191906103bf565b610116565b6040516100c39190610348565b60405180910390f35b6100e660048036038101906100e19190610414565b61015b565b6040516100f3919061046c565b60405180910390f35b60015481565b5f602052805f5260405f205f915090505481565b5f805f8373ffffffffffffffffffffffffffffffffffffffff1673ffffffffffffffffffffffffffffffffffffffff1681526020019081526020015f20549050919050565b5f80821161019e576040517f08c379a0000000000000000000000000000000000000000000000000000000008152600401610195906104df565b60405180910390fd5b815f803373ffffffffffffffffffffffffffffffffffffffff1673ffffffffffffffffffffffffffffffffffffffff1681526020019081526020015f2054101561021d576040517f08c379a000000000000000000000000000000000000000000000000000000000815260040161021490610547565b60405180910390fd5b815f803373ffffffffffffffffffffffffffffffffffffffff1673ffffffffffffffffffffffffffffffffffffffff1681526020019081526020015f205f8282546102689190610592565b92505081905550815f808573ffffffffffffffffffffffffffffffffffffffff1673ffffffffffffffffffffffffffffffffffffffff1681526020019081526020015f205f8282546102ba91906105c5565b925050819055508273ffffffffffffffffffffffffffffffffffffffff163373ffffffffffffffffffffffffffffffffffffffff167fddf252ad1be2c89b69c2b068fc378daa952ba7f163c4a11628f55a4df523b3ef8460405161031e9190610348565b60405180910390a36001905092915050565b5f819050919050565b61034281610330565b82525050565b5f60208201905061035b5f830184610339565b92915050565b5f80fd5b5f73ffffffffffffffffffffffffffffffffffffffff82169050919050565b5f61038e82610365565b9050919050565b61039e81610384565b81146103a8575f80fd5b50565b5f813590506103b981610395565b92915050565b5f602082840312156103d4576103d3610361565b5b5f6103e1848285016103ab565b91505092915050565b6103f381610330565b81146103fd575f80fd5b50565b5f8135905061040e816103ea565b92915050565b5f806040838503121561042a57610429610361565b5b5f610437858286016103ab565b925050602061044885828601610400565b9150509250929050565b5f8115159050919050565b61046681610452565b82525050565b5f60208201905061047f5f83018461045d565b92915050565b5f82825260208201905092915050565b7f56616c7565206d7573742062652067726561746572207468616e2030000000005f82015250565b5f6104c9601c83610485565b91506104d482610495565b602082019050919050565b5f6020820190508181035f8301526104f6816104bd565b9050919050565b7f496e73756666696369656e742062616c616e63650000000000000000000000005f82015250565b5f610531601483610485565b915061053c826104fd565b602082019050919050565b5f6020820190508181035f83015261055e81610525565b9050919050565b7f4e487b71000000000000000000000000000000000000000000000000000000005f52601160045260245ffd5b5f61059c82610330565b91506105a783610330565b92508282039050818111156105bf576105be610565565b5b92915050565b5f6105cf82610330565b91506105da83610330565b92508282019050808211156105f2576105f1610565565b5b9291505056fea2646970667358221220cc7468106d30a1169b617fd3694d10f8eede23108d5fb0e458b2aa85579a6afe64736f6c63430008190033","linkReferences":{}},"methodIdentifiers":{"balanceOf(address)":"70a08231","balances(address)":"27e235e3","totalSupply()":"18160ddd","transfer(address,uint256)":"a9059cbb"},"id":0}